:020000040800F2
:1000000000500020ED0C0008A10C0008A70C00080F
:10001000AD0C0008B30C0008B90C0008000000008B
:100020000000000000000000000000001153000864
:10003000BF0C000800000000F1540008395500080A
:10004000350D0008350D0008350D0008350D000888
:10005000350D0008350D0008350D0008350D000878
:10006000350D0008350D0008350D0008350D000868
:10007000350D0008350D0008350D0008350D000858
:10008000350D0008350D0008350D0008350D000848
:10009000350D0008350D0008350D0008350D000838
:1000A000350D0008CD0C0008350D0008350D000891
:1000B000350D0008350D0008350D0008350D000818
:1000C000350D0008350D0008350D0008350D000808
:1000D000350D0008350D0008350D0008350D0008F8
:1000E000350D0008350D0008350D00080000000032
:1000F0000000000000000000000000000000000000
:0C01000000000000000000005FF808F1A3
:1001100010B5054C237833B9044B13B10448AFF341
:1001200000800123237010BD740000200000000037
:10013000E05B000808B5034B1BB103490348AFF36C
:10014000008008BD0000000078000020E05B00088F
:10015000034613F8012B002AFBD1181A0138704707
:1001600080B500AF00F0E8FD00F030F800F050FA84
:1001700000F088F800F01CF900F06EF900F0C0F80B
:1001800000F0F2F900F01AFA02F02EFF094A0021FD
:10019000094802F08FFF0346084A1360084A00210D
:1001A000084802F087FF0346074A136002F04EFF3B
:1001B000FEE700BF485C0008350700082002002069
:1001C0006C5C0008990700082402002080B594B0F8
:1001D00000AF07F1280328220021184605F03AFC59
:1001E00007F1140300221A605A609A60DA601A61FB
:1001F0003B1D00221A605A609A60DA600123BB62DC
:100200004FF48033FB6200233B630123BB63022373
:100210007B644FF48033BB644FF4E013FB6407F15D
:100220002803184601F048FA0346002B01D000F0DD
:10023000CDFA0F237B610223BB610023FB614FF4E6
:1002400080633B6200237B6207F11403022118469E
:1002500001F0B4FC0346002B01D000F0B7FA0223F2
:100260007B604FF40043FB603B1D184601F06EFEBF
:100270000346002B01D000F0A9FA00BF5037BD465D
:1002800080BD000080B584B000AF3B1D00221A6025
:100290005A609A60184B194A1A60174B00229A60EC
:1002A000154B00221A73144B00221A75124B4FF48F
:1002B0006022DA61104B00225A600F4B01221A6152
:1002C0000D4800F06BFD0346002B01D000F07EFAD4
:1002D00009237B600123BB600023FB603B1D1946A3
:1002E000054800F033FE0346002B01D000F06EFA03
:1002F00000BF1037BD4680BD9000002000240140A3
:1003000080B58AB000AF07F1200300221A605A605E
:100310003B1D00221A605A609A60DA601A615A61C5
:100320009A61224B4FF080421A60204B00225A60A3
:100330001E4B00229A601D4B4FF6FF72DA601B4B7A
:1003400000221A61194B00229A61184801F05EFFE1
:100350000346002B01D000F039FA00233B62002352
:100360007B6207F120031946104802F015FC034692
:10037000002B01D000F02AFA60237B600023BB60D1
:100380000023FB6000237B613B1D002219460748C8
:1003900002F036F90346002B01D000F017FA0348AB
:1003A00000F034FB00BF2837BD4680BDC0000020F0
:1003B00080B58CB000AF07F10C0324220021184651
:1003C00005F048FB3B1D00221A605A60204B214A71
:1003D0001A601F4B00225A601D4B00229A601C4B72
:1003E0004FF6FF72DA601A4B00221A61184B002296
:1003F0009A610323FB6000233B6101237B6100239F
:10040000BB610023FB6100233B6201237B6200236D
:10041000BB620023FB6207F10C0319460C4801F094
:1004200044FF0346002B01D000F0D0F900237B608D
:100430000023BB603B1D1946054802F0ADFB034697
:10044000002B01D000F0C2F900BF3037BD4680BD9F
:10045000080100200004004080B592B000AF07F111
:10046000240324220021184605F0F4FA07F11C03A6
:1004700000221A605A603B4600221A605A609A6055
:10048000DA601A615A619A61354B364A1A60344B08
:1004900000225A60324B00229A60314B4FF6FF72B5
:1004A000DA602F4B00221A612D4B00229A612C48F2
:1004B00001F0ACFE0346002B01D000F087F90123C8
:1004C0007B620023BB620123FB6200233B630023AA
:1004D0007B630023BB630123FB6300233B64002396
:1004E0007B6407F1240319461D4801F0DEFE034634
:1004F000002B01D000F06AF90023FB6100233B626E
:1005000007F11C031946164802F046FB0346002B70
:1005100001D000F05BF960233B6000237B60002387
:10052000BB6000233B613B46082219460C4802F0A1
:1005300067F80346002B01D000F048F93B460C2237
:100540001946074802F05CF80346002B01D000F082
:100550003DF9034800F05AFA00BF4837BD4680BD58
:10056000500100200008004080B500AF114B124A36
:100570001A60104B4FF4E1325A600E4B00229A6021
:100580000C4B0022DA600B4B00221A61094B0C2243
:100590005A61084B00229A61064B0022DA61054835
:1005A00002F06AFB0346002B01D000F00FF900BFF8
:1005B00080BD00BF980100200038014080B500AF29
:1005C000114B124A1A60104B4FF4E1325A600E4B35
:1005D00000229A600C4B0022DA600B4B00221A6159
:1005E000094B0C225A61084B00229A61064B0022EB
:1005F000DA61054802F040FB0346002B01D000F011
:10060000E5F800BF80BD00BFDC01002000440040D1
:1006100080B588B000AF07F1100300221A605A605D
:100620009A60DA603F4B9B693E4A43F01003936146
:100630003C4B9B6903F01003FB60FB68394B9B69E3
:10064000384A43F020039361364B9B6903F0200343
:10065000BB60BB68334B9B69324A43F00403936130
:10066000304B9B6903F004037B607B682D4B9B69D7
:100670002C4A43F0080393612A4B9B6903F008035B
:100680003B603B6800224FF40051274800F0FCFF1C
:1006900000224FF63041254800F0F6FF00224FF4CB
:1006A0001841234800F0F0FF4FF400533B61012351
:1006B0007B610023BB610223FB6107F11003194634
:1006C000194800F05DFE4FF630433B6101237B612A
:1006D0000023BB610223FB6107F110031946134895
:1006E00000F04EFE4FF480733B6100237B610023DA
:1006F000BB6107F1100319460D4800F041FE4FF4AD
:1007000018433B6101237B610023BB610223FB6132
:1007100007F110031946064800F032FE00BF2037EB
:10072000BD4680BD0010024000100140000C014099
:100730000008014090B587B000AF7860134B07F117
:1007400008040FCB07C4238000224FF40051104847
:1007500000F09AFF07F108031846FFF7F9FC03467B
:100760009AB207F1080164230A4802F0D2FA4FF462
:100770007A7002F049FD01224FF40051044800F064
:1007800083FF4FF47A7002F03FFDDDE7105C000854
:1007900000100140DC01002080B582B000AF78601D
:1007A000012002F031FDFBE780B582B000AF786038
:1007B0007B681B68044A934201D100F0D3FA00BF62
:1007C0000837BD4680BD00BF002C014080B400AF9B
:1007D00072B600BFFEE7000080B584B000AF184BD2
:1007E0009B69174A43F001039361154B9B6903F022
:1007F0000103BB60BB68124BDB69114A43F08053B5
:10080000D3610F4BDB6903F080537B607B68002270
:100810000F216FF0010000F088FD0A4B5B68FB6060
:10082000FB6823F0E063FB60FB6843F00073FB6050
:10083000044AFB68536000BF1037BD4680BD00BF4F
:10084000001002400000014080B58AB000AF78601F
:1008500007F1180300221A605A609A60DA607B6818
:100860001B681F4A934237D11E4B9B691D4A43F4B4
:10087000007393611B4B9B6903F400737B617B697D
:10088000184B9B69174A43F004039361154B9B690E
:1008900003F004033B613B69124B9B69114A43F02F
:1008A000080393610F4B9B6903F00803FB60FB682F
:1008B0003223BB610323FB6107F1180319460A4881
:1008C00000F05EFD0323BB610323FB6107F1180306
:1008D0001946064800F054FD00BF2837BD4680BDCC
:1008E000002401400010024000080140000C0140BB
:1008F00080B58AB000AF786007F1180300221A6053
:100900005A609A60DA607B681B68B3F1804F0CD143
:100910001C4BDB691B4A43F00103D361194BDB69B4
:1009200003F001037B617B6928E07B681B68164A42
:10093000934223D1134BDB69124A43F00403D36182
:10094000104BDB6903F004033B613B690D4B9B6972
:100950000C4A43F0080393610A4B9B6903F00803B8
:10096000FB60FB68C023BB610023FB6100233B628B
:1009700007F118031946054800F002FD00BF2837AB
:10098000BD4680BD0010024000080040000C014040
:1009900080B588B000AF786007F1100300221A60BC
:1009A0005A609A60DA607B681B68154A934223D1CB
:1009B000144BDB69134A43F00203D361114BDB692B
:1009C00003F00203FB60FB680E4B9B690D4A43F08A
:1009D000040393610B4B9B6903F00403BB60BB688A
:1009E000C0233B6100237B610023BB6107F110033F
:1009F0001946054800F0C4FC00BF2037BD4680BD45
:100A000000040040001002400008014080B588B09A
:100A100000AF786007F1100300221A605A609A60F4
:100A2000DA607B681B68B3F1804F18D11D4B9B695E
:100A30001C4A43F0040393611A4B9B6903F00403BF
:100A4000FB60FB6801233B6102237B610223FB61A6
:100A500007F110031946144800F092FC1DE07B6872
:100A60001B68124A934218D10E4B9B690D4A43F002
:100A7000080393610B4B9B6903F00803BB60BB68E1
:100A80004FF440733B6102237B610223FB6107F15A
:100A900010031946064800F073FC00BF2037BD461E
:100AA00080BD00BF00100240000801400008004067
:100AB000000C014080B58AB000AF786007F11803E0
:100AC00000221A605A609A60DA607B681B68374AB5
:100AD000934232D1364B9B69354A43F4804393614C
:100AE000334B9B6903F480437B617B69304B9B698B
:100AF0002F4A43F0040393612D4B9B6903F00403D9
:100B00003B613B694FF40073BB610223FB6103232C
:100B10007B6207F118031946264800F031FC4FF4B8
:100B20008063BB610023FB6100233B6207F1180374
:100B30001946204800F024FC34E07B681B681E4AFC
:100B400093422FD11A4BDB69194A43F40033D36126
:100B5000174BDB6903F40033FB60FB68144B9B69A4
:100B6000134A43F004039361114B9B6903F00403A0
:100B7000BB60BB680423BB610223FB6103237B6270
:100B800007F1180319460B4800F0FAFB0823BB6174
:100B90000023FB6100233B6207F118031946054857
:100BA00000F0EEFB00BF2837BD4680BD0038014095
:100BB00000100240000801400044004080B58CB0A5
:100BC00000AF78600023BB6200237B62002387F8BC
:100BD0002F302E4B9B692D4A43F4006393612B4BBE
:100BE0009B6903F40063BB60BB6807F10C0207F16B
:100BF00010031146184601F05BF901F045F9B8629F
:100C0000BB6A234AA2FB03239B0C013B7B62214B63
:100C1000214A1A601F4B40F2E732DA601D4A7B6AB4
:100C200053601C4B00221A611A4B00229A60194B28
:100C300000229A61174801F03FFA034687F82F30E7
:100C400097F82F30002B1BD1124801F08DFA034684
:100C500087F82F3097F82F30002B11D1192000F092
:100C600080FB7B680F2B08D800227968192000F0E0
:100C70005CFB0A4A7B68136002E0012387F82F308F
:100C800097F82F3018463037BD4680BD001002401F
:100C900083DE1B4328020020002C014004000020BA
:100CA00080B400AFFEE780B400AFFEE780B400AFD1
:100CB000FEE780B400AFFEE780B400AFFEE780B48B
:100CC00000AF00BFBD4680BC7047000080B500AFDC
:100CD000024801F08CFB00BF80BD00BF280200204D
:100CE00080B400AF00BFBD4680BC70470C480D49C2
:100CF0000D4A002302E0D458C4500433C4188C4277
:100D0000F9D30A4A0A4C002301E013600432A242DC
:100D1000FBD3FFF7E5FF04F069FEFFF721FA704708
:100D20000000002074000020105D00087400002006
:100D3000841C0020FEE7000080B500AF084B1B6854
:100D4000074A43F010031360032000F0E3FA0F207A
:100D5000FFF734FFFFF740FD0023184680BD00BFBA
:100D60000020024080B400AF054B1B781A46054BAB
:100D70001B681344034A136000BFBD4680BC704724
:100D8000080000207002002080B400AF024B1B68F6
:100D90001846BD4680BC70477002002080B586B002
:100DA00000AF78600023FB7500233B610023BB602C
:100DB0000023FB607B68002B01D10123BEE07B6830
:100DC0009B68002B7B689B6A002B09D17B68002203
:100DD000DA627B68002283F824207868FFF734FD0C
:100DE000786800F0ABF90346FB757B689B6A03F0FB
:100DF0001003002B40F09980FB7D002B40F0958084
:100E00007B689B6A23F4885323F0020343F00202B9
:100E10007B689A627B685A687B68DB691A437B68E7
:100E20001B7B5B001343BA681343BB607B689B6802
:100E3000B3F5807F03D07B689B68012B02D14FF410
:100E4000807300E000233A6913433B617B681B7D9C
:100E5000012B19D17B681B7B002B09D17B689B6917
:100E6000013B5A033B69134343F400633B610BE0CE
:100E70007B689B6A43F020027B689A627B68DB6A2E
:100E800043F001027B68DA627B681B685B6823F4CD
:100E900069417B681B683A690A435A607B681B6832
:100EA0009A68284B13407A681268B9680B439360BC
:100EB0007B689B68B3F5807F03D07B689B68012BC0
:100EC00004D17B681B69013B1B05FB607B681B68C9
:100ED000DB6A23F470017B681B68FA680A43DA62F4
:100EE0007B681B689A68184B1340BA689A420BD10A
:100EF0007B680022DA627B689B6A23F0030343F07D
:100F000001027B689A6218E07B689B6A23F01203F7
:100F100043F010027B689A627B68DB6A43F001024F
:100F20007B68DA620123FB7507E07B689B6A43F00C
:100F300010027B689A620123FB75FB7D1846183707
:100F4000BD4680BDFDF7E1FFFE0E1FFF80B485B0FA
:100F500000AF786039600023FB730023BB607B68BF
:100F600093F82430012B01D10223DCE07B680122BD
:100F700083F824203B685B68062B1CD87B681B68C1
:100F8000596B3B685A6813469B001344053B1F226C
:100F900002FA03F3DB4319403B6818683B685A6860
:100FA00013469B001344053B00FA03F27B681B6861
:100FB0000A435A633CE03B685B680C2B1CD87B6897
:100FC0001B68196B3B685A6813469B001344233B0C
:100FD0001F2202FA03F3DB4319403B6818683B68A1
:100FE0005A6813469B001344233B00FA03F27B68C4
:100FF0001B680A431A631BE07B681B68D96A3B685D
:101000005A6813469B001344413B1F2202FA03F324
:10101000DB4319403B6818683B685A6813469B00DD
:101020001344413B00FA03F27B681B680A43DA620F
:101030003B681B68092B1CD97B681B68D9683B6817
:101040001A6813465B0013441E3B072202FA03F39F
:10105000DB4319403B6898683B681A6813465B009D
:1010600013441E3B00FA03F27B681B680A43DA60F4
:1010700019E07B681B6819693B681A6813465B00B6
:101080001344072202FA03F3DB4319403B689868D4
:101090003B681A6813465B00134400FA03F27B684E
:1010A0001B680A431A613B681B68102B03D03B681E
:1010B0001B68112B32D17B681B681D4A934225D1D6
:1010C0007B681B689B6803F40003002B26D17B68B8
:1010D0001B689A687B681B6842F400029A603B6850
:1010E0001B68102B1AD1134B1B68134AA2FB032356
:1010F0009A0C13469B0013445B00BB6002E0BB6884
:10110000013BBB60BB68002BF9D107E07B689B6AA1
:1011100043F020027B689A620123FB737B68002204
:1011200083F82420FB7B18461437BD4680BC7047EB
:10113000002401400000002083DE1B4380B584B002
:1011400000AF78600023FB607B681B689B6803F03E
:101150000103012B2ED17B681B689A687B681B6892
:1011600022F001029A60FFF70FFEF8601BE0FFF724
:101170000BFE0246FB68D31A022B14D97B681B684E
:101180009B6803F00103012B0DD17B689B6A43F040
:1011900010027B689A627B68DB6A43F001027B681D
:1011A000DA62012307E07B681B689B6803F0010398
:1011B000012BDCD0002318461037BD4680BD00004F
:1011C00080B485B000AF78607B6803F00703FB60F4
:1011D0000C4BDB68BB60BA684FF6FF031340BB6083
:1011E000FB681A02BB68134343F0BF6343F4003348
:1011F000BB60044ABB68D36000BF1437BD4680BCE7
:10120000704700BF00ED00E080B400AF044BDB6826
:101210001B0A03F007031846BD4680BC704700BF99
:1012200000ED00E080B483B000AF0346FB7197F996
:101230000730002B0BDBFB7903F01F02064997F9FF
:1012400007305B09012000FA02F241F8232000BFB9
:101250000C37BD4680BC704700E100E080B483B02D
:1012600000AF03463960FB7197F90730002B0ADBAA
:101270003B68DAB20C4997F907301201D2B20B443D
:1012800083F800230AE03B68DAB20849FB7903F0EF
:101290000F03043B1201D2B20B441A7600BF0C3785
:1012A000BD4680BC704700BF00E100E000ED00E0FB
:1012B00080B489B000AFF860B9607A60FB6803F071
:1012C0000703FB61FB69C3F10703042B28BF042359
:1012D000BB61FB690433062B02D9FB69033B00E0C9
:1012E00000237B614FF0FF32BB6902FA03F3DA435C
:1012F000BB681A407B699A404FF0FF317B6901FA65
:1013000003F3D9437B680B40134318462437BD468B
:1013100080BC704780B582B000AF78607868FFF716
:101320004FFF00BF0837BD4680BD80B586B000AF17
:101330000346B9607A60FB7300237B61FFF764FFAB
:1013400078617A68B9687869FFF7B2FF024697F961
:101350000F3011461846FFF781FF00BF1837BD4612
:1013600080BD80B582B000AF0346FB7197F90730AE
:101370001846FFF757FF00BF0837BD4680BD000085
:1013800080B48BB000AF7860396000237B620023AB
:101390003B6269E101227B6A02FA03F3FB613B686D
:1013A0001B68FA691340BB61BA69FB699A4240F055
:1013B00058813B685B689A4A93425ED0984A934250
:1013C00075D8984A934258D0964A93426FD8964A15
:1013D000934252D0944A934269D8944A93424CD053
:1013E000924A934263D8924A934246D0904A93429B
:1013F0005DD8122B2AD8122B59D801A252F823F00B
:101400007B1400085514000867140008A91400088C
:10141000AF140008AF140008AF140008AF140008A0
:10142000AF140008AF140008AF140008AF14000890
:10143000AF140008AF140008AF140008AF14000880
:10144000AF1400085D14000871140008794A934233
:1014500013D02CE03B68DB683B6229E03B68DB682B
:1014600004333B6224E03B68DB6808333B621FE0E7
:101470003B68DB680C333B621AE03B689B68002BDF
:1014800002D104233B6213E03B689B68012B05D12A
:1014900008233B627B68FA691A6109E008233B6212
:1014A0007B68FA695A6103E000233B6200E000BFF9
:1014B000BB69FF2B01D87B6801E07B6804337B614B
:1014C000BB69FF2B02D87B6A9B0002E07B6A083B6A
:1014D0009B003B617B691A680F213B6901FA03F3AA
:1014E000DB431A40396A3B6901FA03F31A437B690B
:1014F0001A603B685B6803F08053002B00F0B180FA
:101500004D4B9B694C4A43F0010393614A4B9B69E5
:1015100003F00103BB60BB68484A7B6A9B08023347
:1015200052F82330FB607B6A03F003039B000F2219
:1015300002FA03F3DB43FA681340FB607B68404A1E
:10154000934213D07B683F4A93420DD07B683E4A5A
:10155000934207D07B683D4A934201D1032306E0C2
:10156000042304E0022302E0012300E000237A6A5E
:1015700002F0030292009340FA681343FB602F4984
:101580007B6A9B080233FA6841F823203B685B685A
:1015900003F48033002B06D02D4B1A682C49BB690D
:1015A00013430B6006E02A4B1A68BB69DB432849EA
:1015B00013400B603B685B6803F40033002B06D0DC
:1015C000234B5A682249BB6913434B6006E0204B0A
:1015D0005A68BB69DB431E4913404B603B685B683C
:1015E00003F48013002B06D0194B9A681849BB6985
:1015F00013438B6006E0164B9A68BB69DB431449C2
:1016000013408B603B685B6803F40013002B21D010
:101610000F4BDA680E49BB691343CB6021E000BF72
:1016200000003210000031100000221000002110D4
:1016300000001210000011100010024000000140D4
:1016400000080140000C014000100140001401405E
:10165000000401400B4BDA68BB69DB4309491340C6
:10166000CB607B6A01337B623B681A687B6A22FA33
:1016700003F3002B7FF48EAE00BF00BF2C37BD46B6
:1016800080BC70470004014080B483B000AF786034
:101690000B467B8013467B707B78002B03D07A88C7
:1016A0007B681A6103E07B881A047B681A6100BFBB
:1016B0000C37BD4680BC704780B586B000AF7860FF
:1016C0007B68002B01D1012372E27B681B6803F069
:1016D0000103002B00F08780924B5B6803F00C0342
:1016E000042B0CD08F4B5B6803F00C03082B12D13A
:1016F0008C4B5B6803F48033B3F5803F0BD1894B8F
:101700001B6803F40033002B6CD07B685B68002BF4
:1017100068D101234CE27B685B68B3F5803F06D15A
:10172000804B1B687F4A43F4803313602EE07B6854
:101730005B68002B0CD17B4B1B687A4A23F4803307
:101740001360784B1B68774A23F4802313601DE0F5
:101750007B685B68B3F5A02F0CD1724B1B68714A94
:1017600043F4802313606F4B1B686E4A43F480334D
:1017700013600BE06B4B1B686A4A23F480331360E1
:10178000684B1B68674A23F4802313607B685B689F
:10179000002B13D0FFF7F8FA386108E0FFF7F4FAEE
:1017A00002463B69D31A642B01D9032300E25D4B47
:1017B0001B6803F40033002BF0D014E0FFF7E4FAC9
:1017C000386108E0FFF7E0FA02463B69D31A642B60
:1017D00001D90323ECE1534B1B6803F40033002BC6
:1017E000F0D100E000BF7B681B6803F00203002B10
:1017F00063D04C4B5B6803F00C03002B0BD0494BC0
:101800005B6803F00C03082B1CD1464B5B6803F4A8
:101810008033002B16D1434B1B6803F00203002BCF
:1018200005D07B681B69012B01D00123C0E13D4B32
:101830001B6823F0F8027B685B69DB0039491343BE
:101840000B603AE07B681B69002B20D0364B0122ED
:101850001A60FFF799FA386108E0FFF795FA024637
:101860003B69D31A022B01D90323A1E12D4B1B683D
:1018700003F00203002BF0D02A4B1B6823F0F80280
:101880007B685B69DB00274913430B6015E0264B3F
:1018900000221A60FFF778FA386108E0FFF774FA5F
:1018A00002463B69D31A022B01D9032380E11D4B69
:1018B0001B6803F00203002BF0D17B681B6803F068
:1018C0000803002B3AD07B689B69002B19D0174B7B
:1018D00001221A60FFF758FA386108E0FFF754FA5E
:1018E00002463B69D31A022B01D9032360E10D4B59
:1018F0005B6A03F00203002BF0D0012000F008FB2C
:101900001CE00A4B00221A60FFF73EFA38610FE034
:10191000FFF73AFA02463B69D31A022B08D9032390
:1019200046E100BF001002400000424280044242F3
:10193000924B5B6A03F00203002BE9D17B681B68C2
:1019400003F00403002B00F0A6800023FB758B4BF3
:10195000DB6903F08053002B0DD1884BDB69874A8C
:1019600043F08053D361854BDB6903F08053BB6048
:10197000BB680123FB75824B1B6803F48073002B4B
:1019800018D17F4B1B687E4A43F480731360FFF7C6
:10199000FBF9386108E0FFF7F7F902463B69D31A13
:1019A000642B01D9032303E1754B1B6803F4807397
:1019B000002BF0D07B68DB68012B06D16F4B1B6AD4
:1019C0006E4A43F0010313622DE07B68DB68002B55
:1019D0000CD16A4B1B6A694A23F001031362674BFF
:1019E0001B6A664A23F0040313621CE07B68DB6811
:1019F000052B0CD1614B1B6A604A43F00403136250
:101A00005E4B1B6A5D4A43F0010313620BE05B4BC4
:101A10001B6A5A4A23F001031362584B1B6A574A48
:101A200023F0040313627B68DB68002B15D0FFF7FB
:101A3000ABF938610AE0FFF7A7F902463B69D31A10
:101A400041F28832934201D90323B1E04B4B1B6A28
:101A500003F00203002BEED014E0FFF795F9386194
:101A60000AE0FFF791F902463B69D31A41F2883246
:101A7000934201D903239BE0404B1B6A03F002030E
:101A8000002BEED1FB7D012B05D13C4BDB693B4AA2
:101A900023F08053D3617B68DB69002B00F08780E3
:101AA000364B5B6803F00C03082B61D07B68DB6965
:101AB000022B46D1334B00221A60FFF765F93861DB
:101AC00008E0FFF761F902463B69D31A022B01D9FE
:101AD00003236DE0294B1B6803F00073002BF0D14A
:101AE0007B681B6AB3F5803F08D1244B5B6823F405
:101AF00000327B689B68214913434B601F4B5B6836
:101B000023F474127B68196A7B685B6A0B431B4978
:101B100013434B601B4B01221A60FFF735F9386104
:101B200008E0FFF731F902463B69D31A022B01D9CD
:101B300003233DE0114B1B6803F00073002BF0D032
:101B400035E0104B00221A60FFF71EF9386108E0FB
:101B5000FFF71AF902463B69D31A022B01D9032376
:101B600026E0064B1B6803F00073002BF0D11EE04B
:101B70007B68DB69012B07D1012319E000100240CB
:101B800000700040600042420B4B5B68FB60FB68EA
:101B900003F480327B681B6A9A4206D1FB6803F427
:101BA00070127B685B6A9A4201D0012300E0002337
:101BB00018461837BD4680BD0010024080B584B07D
:101BC00000AF786039607B68002B01D10123D0E041
:101BD0006A4B1B6803F007033A689A4210D9674BB7
:101BE0001B6823F0070265493B6813430B60634B96
:101BF0001B6803F007033A689A4201D00123B8E05A
:101C00007B681B6803F00203002B20D07B681B68F5
:101C100003F00403002B05D0594B5B68584A43F48A
:101C2000E06353607B681B6803F00803002B05D05A
:101C3000534B5B68524A43F460535360504B5B68AC
:101C400023F0F0027B689B684D4913434B607B682F
:101C50001B6803F00103002B40D07B685B68012BFD
:101C600007D1474B1B6803F40033002B15D1012328
:101C70007FE07B685B68022B07D1414B1B6803F058
:101C80000073002B09D1012373E03D4B1B6803F067
:101C90000203002B01D101236BE0394B5B6823F079
:101CA00003027B685B68364913434B60FFF76CF8AF
:101CB000F8600AE0FFF768F80246FB68D31A41F2C1
:101CC0008832934201D9032353E02D4B5B6803F024
:101CD0000C027B685B689B009A42EBD1274B1B6828
:101CE00003F007033A689A4210D2244B1B6823F092
:101CF000070222493B6813430B60204B1B6803F02B
:101D000007033A689A4201D0012332E07B681B68DE
:101D100003F00403002B08D0194B5B6823F4E06246
:101D20007B68DB68164913434B607B681B6803F0D4
:101D30000803002B09D0124B5B6823F460527B68C8
:101D40001B69DB000E4913434B6000F021F802468B
:101D50000B4B5B681B0903F00F030A49CB5C22FAAB
:101D600003F3094A1360094B1B681846FEF726FF68
:101D7000002318461037BD4680BD00BF002002403A
:101D800000100240905C00080000002004000020C9
:101D900090B48AB000AF294B3C1D0FCB84E80F00F4
:101DA00040F201233B800023FB610023BB61002341
:101DB0007B6200237B6100233B62214B5B68FB61FC
:101DC000FB6903F00C03042B02D0082B03D02BE09B
:101DD0001C4B3B622BE0FB699B0C03F00F03283389
:101DE0003B4413F8243C7B61FB6903F48033002BF4
:101DF00012D0134B5B685B0C03F0010328333B44A8
:101E000013F8283CBB617B690E4A03FB02F2BB69F5
:101E1000B2FBF3F37B6204E07B690B4A02FB03F342
:101E20007B627B6A3B6202E0064B3B6200BF3B6A1F
:101E300018462837BD4690BC704700BF205C00089C
:101E40000010024000127A0000093D0080B400AF8B
:101E5000024B1B681846BD4680BC7047000000203E
:101E600080B500AFFFF7F2FF0246054B5B681B0A27
:101E700003F007030349CB5C22FA03F3184680BD45
:101E800000100240A05C000880B500AFFFF7DEFF45
:101E90000246054B5B68DB0A03F007030349CB5C92
:101EA00022FA03F3184680BD00100240A05C00082F
:101EB00080B483B000AF786039607B680F221A600D
:101EC000114B5B6803F003027B685A600E4B5B6842
:101ED00003F0F0027B689A600B4B5B6803F4E062EE
:101EE0007B68DA60084B5B68DB0803F4E0627B68C0
:101EF0001A61064B1B6803F007023B681A6000BFBB
:101F00000C37BD4680BC70470010024000200240E4
:101F100080B485B000AF78600A4B1B680A4AA2FB08
:101F200003235B0A7A6802FB03F3FB6000BFFB68D4
:101F30005A1EFA60002BF9D100BF00BF1437BD460E
:101F400080BC704700000020D34D621080B586B081
:101F500000AF786000233B610023FB607B681B6857
:101F600003F00103002B7DD00023FB754F4BDB6991
:101F700003F08053002B0DD14C4BDB694B4A43F0EF
:101F80008053D361494BDB6903F08053BB60BB686E
:101F90000123FB75464B1B6803F48073002B18D19B
:101FA000434B1B68424A43F480731360FEF7ECFE18
:101FB000386108E0FEF7E8FE02463B69D31A642B5D
:101FC00001D903236DE03A4B1B6803F48073002BA7
:101FD000F0D0364B1B6A03F44073FB60FB68002BA8
:101FE0002ED07B685B6803F44073FA689A4227D06E
:101FF0002E4B1B6A23F44073FB602E4B01221A60A8
:102000002C4B00221A60294AFB681362FB6803F01C
:102010000103002B14D0FEF7B7FE38610AE0FEF78B
:10202000B3FE02463B69D31A41F28832934201D98A
:10203000032336E01D4B1B6A03F00203002BEED096
:102040001A4B1B6A23F440727B685B681749134381
:102050000B62FB7D012B05D1144BDB69134A23F086
:102060008053D3617B681B6803F00203002B08D008
:102070000E4B5B6823F440427B689B680B4913431B
:102080004B607B681B6803F01003002B08D0074BE4
:102090005B6823F480027B68DB68044913434B6070
:1020A000002318461837BD4680BD00BF001002400F
:1020B000007000404004424280B582B000AF7860BA
:1020C0007B68002B01D1012341E07B6893F83D3010
:1020D000DBB2002B06D17B68002283F83C207868B5
:1020E00000F039F87B68022283F83D207B681A688B
:1020F0007B6804331946104600F064FB7B680122BC
:1021000083F846207B68012283F83E207B68012209
:1021100083F83F207B68012283F840207B680122FE
:1021200083F841207B68012283F842207B680122EA
:1021300083F843207B68012283F844207B680122D6
:1021400083F845207B68012283F83D200023184650
:102150000837BD4680BD80B483B000AF786000BF53
:102160000C37BD4680BC704780B485B000AF786046
:102170007B6893F83D30DBB2012B01D001233AE0BC
:102180007B68022283F83D207B681B68DA687B68E5
:102190001B6842F00102DA607B681B68184A9342B0
:1021A0000ED07B681B68B3F1804F09D07B681B6839
:1021B000144A934204D07B681B68134A934211D19E
:1021C0007B681B689B6803F00703FB60FB68062BBA
:1021D00010D07B681B681A687B681B6842F001029C
:1021E0001A6007E07B681B681A687B681B6842F00E
:1021F00001021A60002318461437BD4680BC7047A0
:10220000002C0140000400400008004080B582B06E
:1022100000AF78607B68002B01D1012341E07B682F
:1022200093F83D30DBB2002B06D17B68002283F8A7
:102230003C207868FEF75CFB7B68022283F83D2037
:102240007B681A687B6804331946104600F0BAFAB6
:102250007B68012283F846207B68012283F83E20B8
:102260007B68012283F83F207B68012283F84020AD
:102270007B68012283F841207B68012283F8422099
:102280007B68012283F843207B68012283F8442085
:102290007B68012283F845207B68012283F83D207A
:1022A000002318460837BD4680BD80B586B000AF14
:1022B000786039607B68002B01D1012393E07B6853
:1022C00093F83D30DBB2002B06D17B68002283F807
:1022D0003C207868FEF75CFB7B68022283F83D2097
:1022E0007B681B689B687A68126823F4804323F03C
:1022F000070393607B681A687B68043319461046AD
:1023000000F060FA7B681B689B687B617B681B68D8
:102310009B693B617B681B681B6AFB603B681B68B1
:102320007A6913437B613B6923F4407323F0030311
:102330003B613B689A683B689B691B0213433A699F
:1023400013433B613B6923F4406323F00C033B617F
:102350003B6923F4704323F0F0033B613B68DA6888
:102360003B68DB691B0213433A6913433B613B68DB
:102370001B691A013B681B6A1B0313433A69134329
:102380003B61FB6823F02203FB603B685A683B68B3
:102390005B691B011343FA681343FB607B681B688E
:1023A0007A699A607B681B683A699A617B681B68E6
:1023B000FA681A627B68012283F846207B68012252
:1023C00083F83E207B68012283F83F207B6801224E
:1023D00083F842207B68012283F843207B68012236
:1023E00083F83D20002318461837BD4680BD80B5D0
:1023F00082B000AF78607B681B681B6903F0020342
:10240000022B22D17B681B68DB6803F00203022BDE
:102410001BD17B681B686FF002021A617B68012286
:102420001A777B681B689B6903F00303002B03D0BA
:10243000786800F0ACF905E0786800F09FF97868FA
:1024400000F0AEF97B6800221A777B681B681B6975
:1024500003F00403042B22D17B681B68DB6803F0C4
:102460000403042B1BD17B681B686FF004021A6104
:102470007B6802221A777B681B689B6903F44073B0
:10248000002B03D0786800F082F905E0786800F04E
:1024900075F9786800F084F97B6800221A777B6808
:1024A0001B681B6903F00803082B22D17B681B689B
:1024B000DB6803F00803082B1BD17B681B686FF0F7
:1024C00008021A617B6804221A777B681B68DB6943
:1024D00003F00303002B03D0786800F058F905E0FF
:1024E000786800F04BF9786800F05AF97B680022B0
:1024F0001A777B681B681B6903F01003102B22D12D
:102500007B681B68DB6803F01003102B1BD17B6812
:102510001B686FF010021A617B6808221A777B68CB
:102520001B68DB6903F44073002B03D0786800F06C
:102530002EF905E0786800F021F9786800F030F9AC
:102540007B6800221A777B681B681B6903F0010314
:10255000012B0ED17B681B68DB6803F00103012BA4
:1025600007D17B681B686FF001021A617868FEF77B
:102570001BF97B681B681B6903F08003802B0ED15D
:102580007B681B68DB6803F08003802B07D17B68C6
:102590001B686FF080021A61786800F064FB7B684A
:1025A0001B681B6903F04003402B0ED17B681B683E
:1025B000DB6803F04003402B07D17B681B686FF09A
:1025C00040021A61786800F0F4F87B681B681B69A8
:1025D00003F02003202B0ED17B681B68DB6803F01F
:1025E0002003202B07D17B681B686FF020021A6143
:1025F000786800F02FFB00BF0837BD4680BD0000A3
:1026000080B584B000AFF860B9607A60FB6893F879
:102610003C30012B01D10223ACE0FB68012283F89E
:102620003C207B680C2B00F29F8001A252F823F023
:10263000652600086927000869270008692700083F
:10264000A5260008692700086927000869270008EF
:10265000E72600086927000869270008692700089D
:1026600027270008FB681B68B968184600F00CF9BA
:10267000FB681B689A69FB681B6842F008029A6154
:10268000FB681B689A69FB681B6822F004029A6168
:10269000FB681B689969BB681A69FB681B680A4379
:1026A0009A6162E0FB681B68B968184600F052F94D
:1026B000FB681B689A69FB681B6842F400629A61B8
:1026C000FB681B689A69FB681B6822F480629A6148
:1026D000FB681B689969BB681B691A02FB681B6869
:1026E0000A439A6141E0FB681B68B968184600F02C
:1026F0009BF9FB681B68DA69FB681B6842F00802FB
:10270000DA61FB681B68DA69FB681B6822F0040267
:10271000DA61FB681B68D969BB681A69FB681B68CA
:102720000A43DA6121E0FB681B68B968184600F0CB
:10273000E5F9FB681B68DA69FB681B6842F4006214
:10274000DA61FB681B68DA69FB681B6822F4806247
:10275000DA61FB681B68D969BB681B691A02FB68F0
:102760001B680A43DA6100E000BFFB68002283F8BF
:102770003C20002318461037BD4680BD80B483B08E
:1027800000AF786000BF0C37BD4680BC704780B496
:1027900083B000AF786000BF0C37BD4680BC704787
:1027A00080B483B000AF786000BF0C37BD4680BCFA
:1027B000704780B483B000AF786000BF0C37BD466F
:1027C00080BC704780B485B000AF786039607B68AA
:1027D0001B68FB607B68294A93420BD07B68B3F18E
:1027E000804F07D07B68264A934203D07B68254AF6
:1027F000934208D1FB6823F07003FB603B685B6881
:10280000FA681343FB607B681C4A93420BD07B68D9
:10281000B3F1804F07D07B68194A934203D07B689D
:10282000184A934208D1FB6823F44073FB603B686D
:10283000DB68FA681343FB60FB6823F080023B68A7
:102840005B691343FB607B68FA681A603B689A68AF
:102850007B68DA623B681A687B689A627B68074A21
:10286000934203D13B681A697B681A637B68012233
:102870005A6100BF1437BD4680BC7047002C014030
:10288000000400400008004080B487B000AF7860CA
:1028900039607B681B6A23F001027B681A627B68DF
:1028A0001B6A7B617B685B683B617B689B69FB6043
:1028B000FB6823F07003FB60FB6823F00303FB60FD
:1028C0003B681B68FA681343FB607B6923F00203D3
:1028D0007B613B689B687A6913437B617B681C4A18
:1028E00093420CD17B6923F008037B613B68DB6872
:1028F0007A6913437B617B6923F004037B617B6806
:10290000134A934211D13B6923F480733B613B69C5
:1029100023F400733B613B685B693A6913433B6195
:102920003B689B693A6913433B617B683A695A602B
:102930007B68FA689A613B685A687B685A637B686F
:102940007A691A6200BF1C37BD4680BC704700BF61
:10295000002C014080B487B000AF786039607B689C
:102960001B6A23F010027B681A627B681B6A7B611A
:102970007B685B683B617B689B69FB60FB6823F459
:10298000E043FB60FB6823F44073FB603B681B681B
:102990001B02FA681343FB607B6923F020037B6111
:1029A0003B689B681B017A6913437B617B681D4A06
:1029B00093420DD17B6923F080037B613B68DB6828
:1029C0001B017A6913437B617B6923F040037B61C0
:1029D0007B68144A934213D13B6923F480633B61C3
:1029E0003B6923F400633B613B685B699B003A6988
:1029F00013433B613B689B699B003A6913433B610E
:102A00007B683A695A607B68FA689A613B685A68E1
:102A10007B689A637B687A691A6200BF1C37BD467F
:102A200080BC7047002C014080B487B000AF786054
:102A300039607B681B6A23F480727B681A627B684A
:102A40001B6A7B617B685B683B617B68DB69FB6061
:102A5000FB6823F07003FB60FB6823F00303FB605B
:102A60003B681B68FA681343FB607B6923F40073BF
:102A70007B613B689B681B027A6913437B617B68BF
:102A80001D4A93420DD17B6923F400637B613B684F
:102A9000DB681B027A6913437B617B6923F48063E3
:102AA0007B617B68144A934213D13B6923F48053C2
:102AB0003B613B6923F400533B613B685B691B014D
:102AC0003A6913433B613B689B691B013A691343B5
:102AD0003B617B683A695A607B68FA68DA613B68F7
:102AE0005A687B68DA637B687A691A6200BF1C37B0
:102AF000BD4680BC704700BF002C014080B487B049
:102B000000AF786039607B681B6A23F480527B6871
:102B10001A627B681B6A3B617B685B687B617B68D0
:102B2000DB69FB60FB6823F4E043FB60FB6823F494
:102B30004073FB603B681B681B02FA681343FB6031
:102B40003B6923F400533B613B689B681B033A6974
:102B500013433B617B680F4A934209D17B6923F49D
:102B600080437B613B685B699B017A6913437B61AE
:102B70007B687A695A607B68FA68DA613B685A68F0
:102B80007B681A647B683A691A6200BF1C37BD46CD
:102B900080BC7047002C014080B485B000AF7860E5
:102BA00039607B6893F83C30012B01D1022346E069
:102BB0007B68012283F83C207B68022283F83D2059
:102BC0007B681B685B68FB607B681B689B68BB60FD
:102BD000FB6823F07003FB603B681B68FA681343D3
:102BE000FB607B681B68FA685A607B681B68164A42
:102BF00093420ED07B681B68B3F1804F09D07B688D
:102C00001B68124A934204D07B681B68104A9342A7
:102C10000CD1BB6823F08003BB603B685B68BA687B
:102C20001343BB607B681B68BA689A607B680122AB
:102C300083F83D207B68002283F83C20002318465F
:102C40001437BD4680BC7047002C01400004004092
:102C50000008004080B483B000AF786000BF0C373C
:102C6000BD4680BC704780B483B000AF786000BFC1
:102C70000C37BD4680BC704780B582B000AF78602D
:102C80007B68002B01D101233FE07B6893F83D3046
:102C9000DBB2002B06D17B68002283F83C207868E9
:102CA000FDF708FF7B68242283F83D207B681B68C2
:102CB000DA687B681B6822F40052DA60786800F0FA
:102CC00005F97B681B681A697B681B6822F49042CF
:102CD0001A617B681B685A697B681B6822F02A02AC
:102CE0005A617B681B68DA687B681B6842F4005293
:102CF000DA607B6800221A647B68202283F83D201A
:102D00007B68202283F83E20002318460837BD4602
:102D100080BD80B58AB002AFF860B9603B601346F1
:102D2000FB8000237B61FB6893F83D30DBB2202BF6
:102D30007CD1BB68002B02D0FB88002B01D1012382
:102D400075E0FB6893F83C30012B01D102236EE063
:102D5000FB68012283F83C20FB6800221A64FB68B0
:102D6000212283F83D20FEF70FF87861FB68FA888E
:102D70009A84FB68FA88DA84FB689B68B3F5805F05
:102D800008D1FB681B69002B04D10023FB61BB68E1
:102D9000BB6103E0BB68FB610023BB61FB680022F1
:102DA00083F83C202AE03B6800937B690022802165
:102DB000F86800F040F80346002B01D0032336E00A
:102DC000FB69002B0BD1BB691B881A46FB681B688B
:102DD000C2F308025A60BB690233BB6107E0FB69BA
:102DE0001A78FB681B685A60FB690133FB61FB685A
:102DF000DB8C9BB2013B9AB2FB68DA84FB68DB8C0C
:102E00009BB2002BCFD13B6800937B69002240210D
:102E1000F86800F010F80346002B01D0032306E009
:102E2000FB68202283F83D20002300E0022318469F
:102E30002037BD4680BD80B584B000AFF860B96072
:102E40003B601346FB712CE0BB69B3F1FF3F28D018
:102E5000BB69002B07D0FDF797FF02463B68D31AEA
:102E6000BA699A421DD2FB681B68DA68FB681B6866
:102E700022F4D072DA60FB681B685A69FB681B6831
:102E800022F001025A61FB68202283F83D20FB6892
:102E9000202283F83E20FB68002283F83C20032395
:102EA0000FE0FB681B681A68BB681340BA689A4257
:102EB0000CBF01230023DBB21A46FB799A42C3D030
:102EC000002318461037BD4680BD000080B584B091
:102ED00000AF78607B681B681B6923F440517B68F6
:102EE000DA687B681B680A431A617B689A687B68AA
:102EF0001B691A437B685B691343BB607B681B6873
:102F0000DB6823F4B05323F00C037A681268B968C5
:102F10000B43D3607B681B685B6923F440717B685B
:102F20009A697B681B680A435A617B681B682C4A54
:102F3000934203D1FEF7A8FFF86002E0FEF790FF8E
:102F4000F860FA6813469B0013449A001A447B68A1
:102F50005B689B00B2FBF3F3224AA2FB03235B09ED
:102F60001901FA6813469B0013449A001A447B68BF
:102F70005B689B00B2FBF3F21A4BA3FB02035B09F5
:102F8000642000FB03F3D31A1B013233154AA2FB62
:102F900003235B0903F0F0031944FA6813469B000E
:102FA00013449A001A447B685B689B00B2FBF3F2FF
:102FB0000C4BA3FB02035B09642000FB03F3D31A51
:102FC0001B013233074AA2FB03235B0903F00F0204
:102FD0007B681B680A449A6000BF1037BD4680BDFD
:102FE000003801401F85EB5180B485B000AFEFF38E
:102FF0000583BB60BB68002B0FD1EFF310837B60B0
:103000007B68002B09D1104B1B68022B09D1EFF311
:1030100011833B603B68002B03D06FF00503FB601E
:103020000CE0094B1B68002B05D1074B01221A60ED
:103030000023FB6002E04FF0FF33FB60FB681846A3
:103040001437BD4680BC70477402002080B584B040
:1030500000AFEFF30583BB60BB68002B0FD1EFF32C
:1030600010837B607B68002B09D1114B1B68022BFE
:1030700009D1EFF311833B603B68002B03D06FF065
:103080000503FB600EE00A4B1B68012B07D1084BC0
:1030900002221A6001F090F80023FB6002E04FF07A
:1030A000FF33FB60FB6818461037BD4680BD00BF8C
:1030B0007402002080B592B004AFF860B9607A6005
:1030C00000237B61EFF305837B627B6A002B40F07A
:1030D0009480EFF310833B623B6A002B40F08D80BD
:1030E000484B1B68022B06D1EFF31183FB61FB6990
:1030F000002B40F08280FB68002B7ED080233B6356
:103100001823FB620023FB7607F11B037B634FF060
:10311000FF33BB627B68002B45D07B681B68002BAC
:1031200002D07B681B687B637B689B69002B02D0A5
:103130007B689B69FB62FB6A002B08D0FB6A382B1B
:1031400005D87B685B6803F00103002B01D00023E6
:1031500054E07B685B69002B03D07B685B699B084C
:103160003B637B689B68002B0ED07B68DB68BB2BC6
:103170000AD97B681B69002B06D07B685B69002B32
:1031800002D00123BB6210E07B689B68002B0CD14E
:103190007B68DB68002B08D17B681B69002B04D19E
:1031A0000023BB6201E00023BB62BB6A012B10D18C
:1031B0007B681B697A68926802920193FB6A0093AC
:1031C000BB683A6B796BF86800F012FE03467B61CE
:1031D00013E0BB6A002B10D13B6B9AB207F11403CA
:1031E0000193FB6A0093BB68796BF86800F05CFEA2
:1031F0000346012B01D000237B617B6918463837D9
:10320000BD4680BD7402002080B586B000AF7860F6
:10321000EFF305833B613B69002B0FD1EFF3108384
:10322000FB60FB68002B09D10D4B1B68022B09D1F9
:10323000EFF31183BB60BB68002B03D06FF0050375
:103240007B6107E000237B617B68002B02D07868FC
:1032500000F07EFF7B6918461837BD4680BD00BF71
:103260007402002080B485B000AFF860B9607A6065
:10327000FB68064A1A60BB68054A1A607B688022B0
:103280001A6000BF1437BD4680BC7047780200202A
:103290003403002080B485B000AFF860B9607A6074
:1032A000FB68074A1A60BB68064A1A607B684FF4DD
:1032B00080721A6000BF1437BD4680BC704700BFE3
:1032C00034050020F005002080B483B000AF7860A2
:1032D0007B6803F108027B685A607B684FF0FF321D
:1032E0009A607B6803F108027B68DA607B6803F10F
:1032F00008027B681A617B6800221A6000BF0C37E5
:10330000BD4680BC704780B483B000AF78607B68F6
:1033100000221A6100BF0C37BD4680BC704780B4E4
:1033200085B000AF786039607B685B68FB603B68A4
:10333000FA685A60FB689A683B689A60FB689B6809
:103340003A685A60FB683A689A603B687A681A6122
:103350007B681B685A1C7B681A6000BF1437BD4627
:1033600080BC704780B485B000AF786039603B683E
:103370001B68BB60BB68B3F1FF3F03D17B681B696F
:10338000FB600CE07B680833FB6002E0FB685B6875
:10339000FB60FB685B681B68BA689A42F6D2FB6800
:1033A0005A683B685A603B685B683A689A603B6859
:1033B000FA689A60FB683A685A603B687A681A61F2
:1033C0007B681B685A1C7B681A6000BF1437BD46B7
:1033D00080BC704780B485B000AF78607B681B69A3
:1033E000FB607B685B687A6892689A607B689B6820
:1033F0007A6852685A60FB685B687A689A4203D1BF
:103400007B689A68FB685A607B6800221A61FB68D7
:103410001B685A1EFB681A60FB681B681846143745
:10342000BD4680BC7047000080B584B000AF7860B6
:1034300039607B68FB60FB68002B0AD14FF05003BA
:1034400083F31188BFF36F8FBFF34F8FBB6000BF53
:10345000FEE701F0F3FFFB681A68FB68DB6BF968B5
:10346000096C01FB03F31A44FB685A60FB680022F5
:103470009A63FB681A68FB689A60FB681A68FB68C5
:10348000DB6B013BF968096C01FB03F31A44FB6831
:10349000DA60FB68FF2283F84420FB68FF2283F890
:1034A00045203B68002B14D1FB681B69002B1AD008
:1034B000FB681033184601F01BF90346002B12D0AD
:1034C0000C4B4FF080521A60BFF34F8FBFF36F8FDA
:1034D00009E0FB6810331846FFF7F6FEFB6824335B
:1034E0001846FFF7F1FE01F0D9FF01231846103707
:1034F000BD4680BD04ED00E080B58EB002AFF8603F
:10350000B9607A603B60FB68002B0AD14FF0500332
:1035100083F31188BFF36F8FBFF34F8FBB6200BF80
:10352000FEE73B68002B0AD14FF0500383F311886C
:10353000BFF36F8FBFF34F8F7B6200BFFEE77B68E7
:10354000002B02D0BB68002B01D0012300E0002338
:10355000002B0AD14FF0500383F31188BFF36F8F14
:10356000BFF34F8F3B6200BFFEE77B68002B02D1A9
:10357000BB68002B01D1012300E00023002B0AD1FE
:103580004FF0500383F31188BFF36F8FBFF34F8F5A
:10359000FB6100BFFEE750237B617B69502B0AD0A3
:1035A0004FF0500383F31188BFF36F8FBFF34F8F3A
:1035B000BB6100BFFEE73B68FB62FB6A002B0DD0DE
:1035C000FB6A012283F8462097F83820FB6A0093B3
:1035D00013467A68B968F86800F005F8FB6A18467F
:1035E0003037BD4680BD80B584B000AFF860B960AB
:1035F0007A60FB70BB68002B03D1BB69BA691A60A3
:1036000002E0BB697A681A60BB69FA68DA63BB6971
:10361000BA681A640121B869FFF706FFBB69FA7836
:1036200083F84C2000BF1037BD4680BD80B58EB0FA
:1036300000AFF860B9607A603B6000237B63FB6891
:103640003B633B6B002B0AD14FF0500383F311888F
:10365000BFF36F8FBFF34F8FBB6200BFFEE7BB6846
:10366000002B03D13B6B1B6C002B01D1012300E02D
:103670000023002B0AD14FF0500383F31188BFF3CE
:103680006F8FBFF34F8F7B6200BFFEE73B68022B5B
:1036900003D13B6BDB6B012B01D1012300E0002345
:1036A000002B0AD14FF0500383F31188BFF36F8FC3
:1036B000BFF34F8F3B6200BFFEE701F0DFF9034627
:1036C000002B02D17B68002B01D1012300E00023F5
:1036D000002B0AD14FF0500383F31188BFF36F8F93
:1036E000BFF34F8FFB6100BFFEE701F0A7FE3B6B0E
:1036F0009A6B3B6BDB6B9A4202D33B68022B29D15E
:103700003A68B968386B00F007FAF8623B6B5B6A9D
:10371000002B10D03B6B2433184600F0E9FF034622
:10372000002B13D03F4B4FF080521A60BFF34F8FE6
:10373000BFF36F8F0AE0FB6A002B07D0394B4FF0C5
:1037400080521A60BFF34F8FBFF36F8F01F0A6FE58
:10375000012363E07B68002B03D101F09FFE00236F
:103760005CE07B6B002B06D107F11403184601F0D7
:1037700023F801237B6301F091FE00F08DFD01F041
:103780005DFE3B6B93F844305BB2B3F1FF3F03D176
:103790003B6B002283F844203B6B93F845305BB2CF
:1037A000B3F1FF3F03D13B6B002283F8452001F0CA
:1037B00075FE3A1D07F114031146184601F012F880
:1037C0000346002B24D1386B00F09EFA0346002BF1
:1037D00018D03B6B10337A681146184600F038FF5A
:1037E000386B00F029FA00F065FD0346002B7FF4EA
:1037F0007CAF0C4B4FF080521A60BFF34F8FBFF37A
:103800006F8F72E7386B00F017FA00F053FD6CE72A
:10381000386B00F011FA00F04DFD002318463837E0
:10382000BD4680BD04ED00E080B58EB000AFF8600D
:10383000B9607A603B60FB683B633B6B002B0AD14D
:103840004FF0500383F31188BFF36F8FBFF34F8F97
:103850007B6200BFFEE7BB68002B03D13B6B1B6C98
:10386000002B01D1012300E00023002B0AD14FF0EF
:10387000500383F31188BFF36F8FBFF34F8F3B6209
:1038800000BFFEE73B68022B03D13B6BDB6B012BD8
:1038900001D1012300E00023002B0AD14FF0500397
:1038A00083F31188BFF36F8FBFF34F8FFB6100BFAE
:1038B000FEE701F085FEEFF311824FF0500383F332
:1038C0001188BFF36F8FBFF34F8FBA617B61BB6904
:1038D000FB623B6B9A6B3B6BDB6B9A4202D33B68A0
:1038E000022B2CD13B6B93F8453087F82B303A688C
:1038F000B968386B00F010F997F92B30B3F1FF3F3E
:1039000012D13B6B5B6A002B16D03B6B24331846FD
:1039100000F0EEFE0346002B0ED07B68002B0BD090
:103920007B6801221A6007E097F82B300133DBB285
:103930005AB23B6B83F8452001237B6301E00023EF
:103940007B63FB6A3B613B6983F3118800BF7B6B40
:1039500018463837BD4680BD80B58CB000AFF860E2
:10396000B9607A600023FB62FB68BB62BB6A002B14
:103970000AD14FF0500383F31188BFF36F8FBFF369
:103980004F8F3B6200BFFEE7BB68002B03D1BB6AD1
:103990001B6C002B01D1012300E00023002B0AD176
:1039A0004FF0500383F31188BFF36F8FBFF34F8F36
:1039B000FB6100BFFEE701F061F80346002B02D176
:1039C0007B68002B01D1012300E00023002B0AD1EA
:1039D0004FF0500383F31188BFF36F8FBFF34F8F06
:1039E000BB6100BFFEE701F029FDBB6A9B6B7B62F8
:1039F0007B6A002B1FD0B968B86A00F0F7F87B6AC1
:103A00005A1EBB6A9A63BB6A1B69002B0FD0BB6A44
:103A10001033184600F06CFE0346002B07D03D4BD8
:103A20004FF080521A60BFF34F8FBFF36F8F01F0DA
:103A300035FD012369E07B68002B03D101F02EFDE9
:103A4000002362E0FB6A002B06D107F11003184641
:103A500000F0B2FE0123FB6201F020FD00F01CFC2F
:103A600001F0ECFCBB6A93F844305BB2B3F1FF3F6A
:103A700003D1BB6A002283F84420BB6A93F8453027
:103A80005BB2B3F1FF3F03D1BB6A002283F845204C
:103A900001F004FD3A1D07F110031146184600F02D
:103AA000A1FE0346002B23D1B86A00F017F90346A4
:103AB000002B17D0BB6A24337A681146184600F0F1
:103AC000C7FDB86A00F0B8F800F0F4FB0346002B1D
:103AD00089D1104B4FF080521A60BFF34F8FBFF364
:103AE0006F8F80E7B86A00F0A7F800F0E3FB7AE791
:103AF000B86A00F0A1F800F0DDFBB86A00F0EEF85B
:103B00000346002B3FF46FAF002318463037BD4605
:103B100080BD00BF04ED00E080B586B000AFF86066
:103B2000B9607A6000237B61FB689B6B3B61FB683B
:103B30001B6C002B0DD1FB681B68002B4DD1FB6863
:103B40005B68184600F0B8FF7861FB6800225A6095
:103B500043E07B68002B19D1FB689868FB681B6CFD
:103B60001A46B96801F068FFFB689A68FB681B6C2D
:103B70001A44FB689A60FB689A68FB685B689A4223
:103B80002BD3FB681A68FB689A6026E0FB68D8684C
:103B9000FB681B6C1A46B96801F04EFFFB68DA68D7
:103BA000FB681B6C5B421A44FB68DA60FB68DA68EE
:103BB000FB681B689A4207D2FB685A68FB681B6C5B
:103BC0005B421A44FB68DA607B68022B05D13B69D3
:103BD000002B02D03B69013B3B613B695A1CFB68EF
:103BE0009A637B6918461837BD4680BD80B582B0A0
:103BF00000AF786039607B681B6C002B18D07B6845
:103C0000DA687B681B6C1A447B68DA607B68DA6868
:103C10007B685B689A4203D37B681A687B68DA60CA
:103C20007B68D9687B681B6C1A46386801F004FF12
:103C300000BF0837BD4680BD80B584B000AF786056
:103C400001F0FCFB7B6893F84530FB7311E07B6867
:103C50005B6A002B12D07B682433184600F048FDC5
:103C60000346002B01D000F01FFEFB7B013BDBB2C3
:103C7000FB7397F90F30002BE9DC00E000BF7B6895
:103C8000FF2283F8452001F009FC01F0D7FB7B6897
:103C900093F84430BB7311E07B681B69002B12D092
:103CA0007B681033184600F023FD0346002B01D03B
:103CB00000F0FAFDBB7B013BDBB2BB7397F90E3022
:103CC000002BE9DC00E000BF7B68FF2283F8442082
:103CD00001F0E4FB00BF1037BD4680BD80B584B065
:103CE00000AF786001F0AAFB7B689B6B002B02D1D0
:103CF0000123FB6001E00023FB6001F0CFFBFB68C8
:103D000018461037BD4680BD80B584B000AF7860DE
:103D100001F094FB7B689A6B7B68DB6B9A4202D163
:103D20000123FB6001E00023FB6001F0B7FBFB68AF
:103D300018461037BD4680BD80B485B000AF7860AE
:103D400039600023FB6014E00E4AFB6852F8333000
:103D5000002B0BD10B49FB683A6841F83320094A24
:103D6000FB68DB0013447A685A6006E0FB680133A5
:103D7000FB60FB68072BE7D900BF00BF1437BD46C7
:103D800080BC7047F009002080B586B000AFF860B5
:103D9000B9607A60FB687B6101F050FB7B6993F846
:103DA00044305BB2B3F1FF3F03D17B69002283F85B
:103DB00044207B6993F845305BB2B3F1FF3F03D1F8
:103DC0007B69002283F8452001F068FB7B699B6BCF
:103DD000002B06D17B6924337A68B968184600F055
:103DE0005BFC7869FFF728FF00BF1837BD4680BD30
:103DF00080B58EB004AFF860B9607A603B607B6BD1
:103E0000002B0AD14FF0500383F31188BFF36F8F5B
:103E1000BFF34F8F3B6200BFFEE7BB6B002B0AD1A5
:103E20004FF0500383F31188BFF36F8FBFF34F8FB1
:103E3000FB6100BFFEE7BC233B613B69BC2B0AD0A2
:103E40004FF0500383F31188BFF36F8FBFF34F8F91
:103E5000BB6100BFFEE7BB6B002B1ED07B6B002B52
:103E60001BD0BB6B7B627B6A7A6B1A637B6A022214
:103E700083F8B920002303937B6A029307F11403AC
:103E800001933B6B00933B687A68B968F86800F06F
:103E900051F8786A00F0ECF801E000237B617B695F
:103EA00018462837BD4680BD80B58CB004AFF86099
:103EB000B9603B601346FB80FB889B00184601F00D
:103EC000BDFB78617B69002B0ED0BC2001F0B6FBF6
:103ED000F861FB69002B03D0FB697A691A6305E07E
:103EE000786901F06FFC01E00023FB61FB69002BA6
:103EF00017D0FB69002283F8B920FA8800230393C6
:103F0000FB690293FB6A0193BB6A00933B68B96843
:103F1000F86800F00FF8F86900F0AAF80123BB6117
:103F200002E04FF0FF33BB61BB6918462037BD4646
:103F300080BD000080B588B000AFF860B9607A60DD
:103F40003B603B6B186B7B689B001A46A52101F018
:103F500081FD3B6B1A6B7B6803F18043013B9B0047
:103F60001344BB61BB6923F00703BB61BB6903F06A
:103F70000703002B0AD04FF0500383F31188BFF3DF
:103F80006F8FBFF34F8F7B6100BFFEE70023FB61A4
:103F900012E0BA68FB69134419783A6BFB69134461
:103FA00034330A461A70BA68FB6913441B78002B35
:103FB00006D0FB690133FB61FB690F2BE9D900E0F7
:103FC00000BF3B6B002283F84320BB6A372B01D92B
:103FD0003723BB623B6BBA6ADA623B6BBA6ADA645C
:103FE0003B6B00221A653B6B04331846FFF78BF9D5
:103FF0003B6B18331846FFF786F93B6B3A6B1A6137
:10400000BB6AC3F138023B6B9A613B6B3A6B5A62F5
:104010003B6B0022C3F8B4203B6B002283F8B8202E
:104020003B6B543360220021184601F013FD3B6BBB
:104030000C4A9A653B6B0C4ADA653B6B0B4A1A6675
:104040003A68F968B86901F00BF902463B6B1A60EF
:10405000FB6A002B02D0FB6A3A6B1A6000BF203764
:10406000BD4680BDC85C0008E85C0008A85C00088C
:1040700080B582B000AF786001F0E0F92D4B1B688D
:1040800001332C4A13602C4B1B68002B09D12A4AA0
:104090007B681360274B1B68012B10D100F028FCB4
:1040A0000DE0264B1B68002B09D1234B1B68DA6AF5
:1040B0007B68DB6A9A4202D81F4A7B681360204BF8
:1040C0001B6801331E4A13601D4B1A687B685A64D3
:1040D0007B68DA6A1B4B1B689A4203D97B68DB6AF0
:1040E000184A13607B68DA6A13469B0013449B00EE
:1040F000154A1A447B68043319461046FFF70FF936
:1041000001F0CCF90D4B1B68002B0ED00A4B1B683D
:10411000DA6A7B68DB6A9A4207D20C4B4FF0805216
:104120001A60BFF34F8FBFF36F8F00BF0837BD46D4
:1041300080BD00BF040F0020300A0020100F0020B7
:10414000200F00200C0F0020340A002004ED00E0B6
:1041500080B584B000AF78600023FB607B68002BE3
:1041600017D0134B1B68002B0AD04FF0500383F37A
:104170001188BFF36F8FBFF34F8FBB6000BFFEE7A7
:1041800000F08AF80021786800F004FD00F092F851
:10419000F860FB68002B07D1064B4FF080521A6085
:1041A000BFF34F8FBFF36F8F00BF1037BD4680BD89
:1041B0002C0F002004ED00E080B58AB004AF00238E
:1041C000BB6000237B603A46391D07F1080318469F
:1041D000FFF748F839687B68BA68029201930023B8
:1041E000009300230A4624492448FFF701FE0346B2
:1041F000234A1360224B1B68002B02D001237B61F2
:1042000001E000237B617B69012B02D100F016FDE8
:1042100078617B69012B1BD14FF0500383F3118828
:10422000BFF36F8FBFF34F8F3B6100BF154B1B6810
:104230005433154A1360154B4FF0FF321A60144B7C
:1042400001221A60134B00221A6001F085F80EE07B
:104250007B69B3F1FF3F0AD14FF0500383F311881C
:10426000BFF36F8FBFF34F8FFB6000BFFEE700BF50
:104270001837BD4680BD00BF305C0008C14800084B
:10428000280F0020300A002010000020240F0020FA
:10429000100F0020080F002080B400AF044B1B68F3
:1042A0000133034A136000BFBD4680BC704700BFA6
:1042B0002C0F002080B584B000AF0023FB600023EA
:1042C000BB60424B1B68002B0AD14FF0500383F3B5
:1042D0001188BFF36F8FBFF34F8F3B6000BFFEE7C6
:1042E00001F0ACF8394B1B68013B384A1360374B7F
:1042F0001B68002B62D1364B1B68002B5ED02FE071
:10430000344BDB68DB68FB60FB6818331846FFF74B
:1043100061F8FB6804331846FFF75CF8FB68DA6A5B
:104320002D4B1B689A4203D9FB68DB6A2A4A13604B
:10433000FB68DA6A13469B0013449B00274A1A4421
:10434000FB68043319461046FEF7E9FFFB68DA6A9A
:10435000234B1B68DB6A9A4202D3224B01221A606C
:104360001C4B1B68002BCBD1FB68002B01D000F04D
:1043700061FB1D4B1B687B607B68002B10D000F03D
:1043800045F80346002B02D0164B01221A607B68C9
:10439000013B7B607B68002BF1D1134B00221A603C
:1043A000104B1B68002B09D00123BB600F4B4FF053
:1043B00080521A60BFF34F8FBFF36F8F01F06EF81A
:1043C000BB6818461037BD4680BD00BF2C0F0020CB
:1043D000040F0020C40E00200C0F0020340A00201F
:1043E000300A0020180F0020140F002004ED00E018
:1043F00080B483B000AF044B1B687B607B681846B9
:104400000C37BD4680BC7047080F002080B586B0D1
:1044100000AF00237B61514B1B68002B40F08E8066
:104420004F4B1B6801333B614D4A3B6913603B694D
:10443000002B20D14B4B1B681B68002B0AD04FF080
:10444000500383F31188BFF36F8FBFF34F8F3B602F
:1044500000BFFEE7434B1B68FB60434B1B68414AB0
:104460001360414AFB681360404B1B6801333F4AAD
:10447000136000F0DFFA3E4B1B683A699A424ED354
:10448000384B1B681B68002B01D1012300E000237F
:10449000002B04D0364B4FF0FF321A603FE0314B17
:1044A0001B68DB68DB68BB60BB685B687B603A6984
:1044B0007B689A4203D22E4A7B6813602FE0BB6868
:1044C00004331846FEF786FFBB689B6A002B04D0B6
:1044D000BB6818331846FEF77DFFBB68DA6A254BC8
:1044E0001B689A4203D9BB68DB6A224A1360BB6827
:1044F000DA6A13469B0013449B001F4A1A44BB68A8
:10450000043319461046FEF70AFFBB68DA6A1B4BF4
:104510001B68DB6A9A42B3D301237B61B0E7174B78
:104520001B68DA6A144913469B0013449B000B4432
:104530001B68012B07D901237B6104E0104B1B682A
:1045400001330F4A13600F4B1B68002B01D001236E
:104550007B617B6918461837BD4680BD2C0F002053
:10456000080F0020BC0E0020C00E00201C0F0020F1
:10457000240F00200C0F0020340A0020300A0020F5
:10458000140F0020180F002080B485B000AF2A4B14
:104590001B68002B03D0294B01221A6046E0274BF1
:1045A00000221A60264B1B68FB6010E0FB68002BA2
:1045B0000AD14FF0500383F31188BFF36F8FBFF31D
:1045C0004F8F7B6000BFFEE7FB68013BFB601D492E
:1045D000FA6813469B0013449B000B441B68002B96
:1045E000E4D0FA6813469B0013449B00154A134419
:1045F000BB60BB685B685A68BB685A60BB685A6836
:10460000BB6808339A4204D1BB685B685A68BB68D0
:104610005A60BB685B68DB680B4A1360084AFB683A
:104620001360094B1B685433084A136000BF1437EA
:10463000BD4680BC704700BF2C0F0020180F002023
:104640000C0F0020340A0020300A00201000002047
:1046500080B584B000AF786039607B68002B0AD1E8
:104660004FF0500383F31188BFF36F8FBFF34F8F69
:10467000FB6000BFFEE7074B1B68183319467868DC
:10468000FEF770FE0121386800F084FA00BF103791
:10469000BD4680BD300A002080B586B000AFF8600E
:1046A000B9607A60FB68002B0AD14FF0500383F3A6
:1046B0001188BFF36F8FBFF34F8F7B6100BFFEE7A1
:1046C0000A4B1B6818331946F868FEF728FE7B680A
:1046D000002B02D04FF0FF33BB607968B86800F060
:1046E00059FA00BF1837BD4680BD00BF300A002010
:1046F00080B586B000AF78607B68DB68DB683B61C3
:104700003B69002B0AD14FF0500383F31188BFF3AC
:104710006F8FBFF34F8FFB6000BFFEE73B6918331D
:104720001846FEF757FE1E4B1B68002B1DD13B6938
:1047300004331846FEF74EFE3B69DA6A194B1B68D4
:104740009A4203D93B69DB6A164A13603B69DA6A0D
:1047500013469B0013449B00134A1A443B690433DD
:1047600019461046FEF7DBFD05E03B691833194694
:104770000E48FEF7D4FD3B69DA6A0D4B1B68DB6A15
:104780009A4205D901237B610A4B01221A6001E09C
:1047900000237B617B6918461837BD4680BD00BF8A
:1047A0002C0F00200C0F0020340A0020C40E002023
:1047B000300A0020180F002080B483B000AF78606A
:1047C000064B1A687B681A60054B1A687B685A604A
:1047D00000BF0C37BD4680BC704700BF1C0F0020D7
:1047E000080F002080B588B000AF786039607B6822
:1047F000002B0AD14FF0500383F31188BFF36F8F62
:10480000BFF34F8F3B6100BFFEE73B68002B0AD12F
:104810004FF0500383F31188BFF36F8FBFF34F8FB7
:10482000FB6000BFFEE700F009FE1D4B1B68BB618B
:104830007B685B68BA69D31A7B613B681B68B3F11C
:10484000FF3F02D10023FB6123E07B681A68154B10
:104850001B689A4207D07B685B68BA699A4202D3A8
:104860000123FB6115E03B681B687A699A420BD211
:104870003B681A687B69D21A3B681A607868FFF750
:104880009BFF0023FB6104E03B6800221A600123C8
:10489000FB6100F003FEFB6918462037BD4680BD72
:1048A000080F00201C0F002080B400AF034B012232
:1048B0001A6000BFBD4680BC704700BF180F0020C3
:1048C00080B582B000AF786000F052F8064B1B68EC
:1048D000012BF9D9054B4FF080521A60BFF34F8F6F
:1048E000BFF36F8FF0E700BF340A002004ED00E053
:1048F00080B582B000AF00237B600CE07A6813467D
:104900009B0013449B00124A13441846FEF7DCFC3C
:104910007B6801337B607B68372BEFD90D48FEF74E
:10492000D3FC0D48FEF7D0FC0C48FEF7CDFC0C483C
:10493000FEF7CAFC0B48FEF7C7FC0B4B054A1A6092
:104940000A4B054A1A6000BF0837BD4680BD00BF4C
:10495000340A0020940E0020A80E0020C40E00206F
:10496000D80E0020F00E0020BC0E0020C00E00204B
:1049700080B582B000AF19E000F060FD104BDB683D
:10498000DB687B607B6804331846FEF723FD0D4B24
:104990001B68013B0B4A13600B4B1B68013B0A4A27
:1049A000136000F07BFD786800F010F8064B1B6880
:1049B000002BE1D100BF00BF0837BD4680BD00BF5E
:1049C000D80E0020040F0020EC0E002080B584B02B
:1049D00000AF78607B685433184601F051F87B686B
:1049E00093F8B930002B08D17B681B6B184600F098
:1049F000E9FE786800F0E6FE18E07B6893F8B930CD
:104A0000012B03D1786800F0DDFE0FE07B6893F89E
:104A1000B930022B0AD04FF0500383F31188BFF353
:104A20006F8FBFF34F8FFB6000BFFEE700BF1037F3
:104A3000BD4680BD80B483B000AF0E4B1B681B68C1
:104A4000002B01D1012300E00023002B04D00A4BEE
:104A50004FF0FF321A6008E0064B1B68DB68DB682A
:104A60007B607B685B68044A136000BF0C37BD46FF
:104A700080BC7047BC0E0020240F002080B483B09F
:104A800000AF0B4B1B68002B02D101237B6008E0B9
:104A9000084B1B68002B02D102237B6001E000233E
:104AA0007B607B6818460C37BD4680BC704700BFF2
:104AB000100F00202C0F002080B586B000AF78606A
:104AC0007B683B6100237B617B68002B56D02E4BBB
:104AD0001B683A699A420AD04FF0500383F3118859
:104AE000BFF36F8FBFF34F8FFB6000BFFEE73B69E3
:104AF0001B6D002B0AD14FF0500383F31188BFF3D5
:104B00006F8FBFF34F8FBB6000BFFEE73B691B6D2C
:104B10005A1E3B691A653B69DA6A3B69DB6C9A424B
:104B20002CD03B691B6D002B28D13B690433184600
:104B3000FEF750FC3B69DA6C3B69DA623B69DB6A81
:104B4000C3F138023B699A613B69DA6A0F4B1B6813
:104B50009A4203D93B69DB6A0C4A13603B69DA6A03
:104B600013469B0013449B00094A1A443B690433D3
:104B700019461046FEF7D3FB01237B617B6918467B
:104B80001837BD4680BD00BF300A00200C0F002042
:104B9000340A002080B584B000AF78603960214BC2
:104BA0001B68FB60204B1B6804331846FEF712FCA1
:104BB0007B68B3F1FF3F0AD13B68002B07D01A4B4B
:104BC0001B68043319461948FEF7A9FB26E0FA686A
:104BD0007B681344BB60144B1B68BA685A60BA68A0
:104BE000FB689A4209D2124B1A680F4B1B680433B8
:104BF00019461046FEF7B6FB10E00E4B1A680A4B3A
:104C00001B68043319461046FEF7ACFB0A4B1B68C1
:104C1000BA689A4202D2084ABB68136000BF1037D4
:104C2000BD4680BD080F0020300A0020F00E002095
:104C3000C00E0020BC0E0020240F002080B58AB0DA
:104C400004AF00237B6100F0CBFA1C4B1B68002BE8
:104C500021D00023FB600023BB603A1D07F108014F
:104C600007F10C031846FEF715FB7968BB68FA6874
:104C7000029201930223009300230A46104911482F
:104C8000FFF7B6F80346104A13600F4B1B68002B62
:104C900001D001237B617B69002B0AD14FF05003C7
:104CA00083F31188BFF36F8FBFF34F8F3B6100BF5A
:104CB000FEE77B6918461837BD4680BD600F0020AF
:104CC000385C0008E94D0008640F002080B58AB008
:104CD00000AFF860B9607A603B6000237B62FB68DC
:104CE000002B0AD14FF0500383F31188BFF36F8F6D
:104CF000BFF34F8F3B6200BFFEE71A4B1B68002BD0
:104D00002AD0BB683B617B687B61FB68BB61BB6889
:104D1000052B18DCFFF7B2FE0346022B09D1114B1D
:104D2000186807F1100100233A6BFEF77FFC7862E8
:104D300012E00C4B186807F1100100230022FEF767
:104D400075FC786208E0074B186807F11001002332
:104D50003A68FEF769FD78627B6A18462837BD46D7
:104D600080BD00BF600F002080B588B002AF7860C2
:104D700039601C4B1B68DB68DB687B617B69043333
:104D80001846FEF727FB7B69DB69012B22D17B6983
:104D90009A697B68D1187B683A68786900F0C8F82E
:104DA0000346002B16D00023009300237A680021CD
:104DB0007869FFF78BFF38613B69002B0AD14FF010
:104DC000500383F31188BFF36F8FBFF34F8FFB60E6
:104DD00000BFFEE77B695B6A7869984700BF1837B8
:104DE000BD4680BD580F002080B584B000AF78600C
:104DF00007F10803184600F057F8F860BB68194639
:104E0000F86800F003F800F0D5F8F1E780B584B059
:104E100000AF78603960FFF73FFA07F108031846E2
:104E200000F066F8F860BB68002B30D13B68002BBF
:104E30000AD17A68FB689A4206D8FFF73BFAF9680C
:104E40007868FFF791FF24E03B68002B08D0134BF4
:104E50001B681B68002B0CBF01230023DBB23B60E7
:104E60000F4B18687A68FB68D31A3A681946FEF740
:104E70008BFFFFF71FFA0346002B0AD1094B4FF0B7
:104E800080521A60BFF34F8FBFF36F8F01E0FFF7BF
:104E900011FA00BF1037BD4680BD00BF5C0F002077
:104EA000600F002004ED00E080B485B000AF7860B2
:104EB0000E4B1B681B68002B0CBF01230023DBB2C9
:104EC0001A467B681A607B681B68002B05D1074B6C
:104ED0001B68DB681B68FB6001E00023FB60FB686C
:104EE00018461437BD4680BC704700BF580F0020DD
:104EF00080B584B000AF7860FFF77AFAF8600B4BAA
:104F00001B68FA689A4205D200F008F97B68012212
:104F10001A6002E07B6800221A60044AFB68136092
:104F2000FB6818461037BD4680BD00BF680F0020E3
:104F300080B586B000AFF860B9607A603B6000234E
:104F40007B61FB68BA685A60FB68FA681A61BA68E4
:104F50007B689A4212D87A683B68D21AFB689B69D0
:104F60009A4202D301237B611BE0104B1A68FB6855
:104F7000043319461046FEF7F5F912E07A683B68EB
:104F80009A4206D2BA683B689A4202D301237B61F7
:104F900007E0074B1A68FB68043319461046FEF712
:104FA000E1F97B6918461837BD4680BD5C0F0020CB
:104FB000580F002080B58EB002AF9DE07B68002BBB
:104FC00018DA3B1D0433FB62FB6A002B0AD14FF059
:104FD000500383F31188BFF36F8FBFF34F8FFB61D3
:104FE00000BFFEE7FB6A1B68FA6A5068FA6A9268BB
:104FF000114698477B68002B7DDBFB68BB62BB6A70
:105000005B69002B04D0BB6A04331846FEF7E2F953
:105010003B461846FFF76CFF78627B68092B6BD81C
:1050200001A252F823F000BF51500008515000086F
:1050300051500008F9500008AD500008E550000834
:105040005150000851500008F9500008AD500008B8
:10505000BA68BB6A9B69D118BB687A6AB86AFFF7FD
:1050600067FF0346002B47D0BB6A5B6AB86A984764
:10507000BB6ADB69012B3FD1BA68BB6A9B691A44E2
:105080000023009300230021B86AFFF71FFE386257
:105090003B6A002B30D14FF0500383F31188BFF3EC
:1050A0006F8FBFF34F8FBB6100BFFEE7BA68BB6A6B
:1050B0009A61BB6A9B69002B0AD14FF0500383F3BE
:1050C0001188BFF36F8FBFF34F8F7B6100BFFEE787
:1050D000BB6A9A697B6AD1187B6A7A6AB86AFFF7F9
:1050E00027FF09E0BB6A93F82C30002B04D1B86A83
:1050F00000F068FB00E000BF074B1B68391D002271
:105100001846FEF729FC0346002B7FF457AF00BF7B
:1051100000BF3037BD4680BD600F002080B588B02D
:1051200002AF45E02C4B1B68DB681B683B612A4BD8
:105130001B68DB68DB68FB60FB6804331846FEF71E
:1051400049F9FB685B6AF8689847FB68DB69012BE3
:105150002ED1FB689B693A691344BB60BA683B690E
:105160009A420ED9FB68BA685A60FB68FA681A61FD
:10517000194B1A68FB68043319461046FEF7F2F81B
:1051800016E00023009300233A690021F868FFF736
:105190009DFD78607B68002B0AD14FF0500383F3AC
:1051A0001188BFF36F8FBFF34F8F3B6000BFFEE7E7
:1051B000094B1B681B68002BB4D1074B1B687B6134
:1051C000064B1B68044A1360044A7B69136000BFE6
:1051D0001837BD4680BD00BF580F00205C0F00206F
:1051E00080B582B002AF00F029F9154B1B68002B87
:1051F00020D11448FEF768F81348FEF765F8134B02
:10520000104A1A60124B104A1A6000230093114B87
:10521000114A10210A20FEF76FF90346084A13606D
:10522000074B1B68002B05D0054B1B680B49184624
:10523000FEF782FD00F032F900BFBD4680BD00BF21
:10524000600F0020300F0020440F0020580F002076
:105250005C0F00200C1000206C0F0020405C000848
:1052600080B485B000AFF860B9607A60FB68043B39
:10527000FB60FB684FF080721A60FB68043BFB60C8
:10528000BB6823F00102FB681A60FB68043BFB600B
:10529000084AFB681A60FB68143BFB607A68FB688D
:1052A0001A60FB68203BFB60FB6818461437BD465C
:1052B00080BC7047B952000880B485B000AF0023AD
:1052C0007B60124B1B68B3F1FF3F0AD04FF05003D5
:1052D00083F31188BFF36F8FBFF34F8FFB6000BF65
:1052E000FEE74FF0500383F31188BFF36F8FBFF3D6
:1052F0004F8FBB6000BF00BF7B68002BFCD000BF9E
:1053000000BF1437BD4680BC704700BF0C000020B2
:10531000074B19680868B0E8F00F80F30988BFF3FD
:105320006F8F4FF0000080F311884EF00D0E704724
:10533000300A002000BF00BF06480068006880F304
:10534000088862B661B6BFF34F8FBFF36F8F00DF7F
:1053500000BF00BF08ED00E080B584B000AF324B65
:10536000FB60FB681B78DBB27B60FB68FF221A7076
:10537000FB681B78DBB2FB70FB78DBB203F05003F9
:10538000DAB22A4B1A702A4B07221A6009E0284B1E
:105390001B68013B264A1360FB78DBB25B00DBB283
:1053A000FB70FB78DBB203F08003802BEFD0204B47
:1053B0001B68C3F10703042B0AD04FF0500383F39B
:1053C0001188BFF36F8FBFF34F8FBB6000BFFEE745
:1053D000174B1B681B02164A1360154B1B6803F41E
:1053E000E063134A13607B68DAB2FB681A70114BF2
:1053F0001B68104A43F4700313600E4B1B680D4A80
:1054000043F07043136000F0B9F80B4B00221A60B0
:10541000FFF792FFFFF7B8F8FFF74EFF002318469B
:105420001037BD4680BD00BF00E400E05C100020E6
:105430006010002020ED00E00C00002080B483B05C
:1054400000AF4FF0500383F31188BFF36F8FBFF3AA
:105450004F8F7B6000BF0F4B1B6801330D4A1360F9
:105460000C4B1B68012B0FD10B4B1B68DBB2002BC5
:105470000AD04FF0500383F31188BFF36F8FBFF34F
:105480004F8F3B6000BFFEE700BF0C37BD4680BCBE
:10549000704700BF0C00002004ED00E080B483B032
:1054A00000AF114B1B68002B0AD14FF0500383F360
:1054B0001188BFF36F8FBFF34F8F7B6000BFFEE794
:1054C000094B1B68013B084A1360074B1B68002B04
:1054D00005D100233B603B6883F3118800BF00BF08
:1054E0000C37BD4680BC70470C0000200000000057
:1054F000EFF30980BFF36F8F0D4B1A6820E9F00FAF
:1055000010602DE908404FF0500080F31188FFF73C
:105510003BF84FF0000080F31188BDE8084019689F
:105520000868B0E8F00F80F30988BFF36F8F704709
:10553000300A002000BF00BF80B582B000AF4FF03E
:10554000500383F31188BFF36F8FBFF34F8F7B60DE
:1055500000BFFEF75BFF0346002B03D0064B4FF066
:1055600080521A6000233B603B6883F3118800BFC0
:1055700000BF0837BD4680BD04ED00E080B400AF39
:105580000A4B00221A600A4B00221A60094B1B6862
:10559000094AA2FB03239B09084A013B1360034B02
:1055A00007221A6000BFBD4680BC704710E000E0D3
:1055B00018E000E000000020D34D621014E000E08D
:1055C00080B485B000AFEFF30583FB60FB680F2B61
:1055D00014D9164AFB6813441B78FB72144B1B78D2
:1055E000FA7A9A420AD24FF0500383F31188BFF33C
:1055F0006F8FBFF34F8F7B6000BFFEE70D4B1B68C3
:1056000003F4E0620C4B1B689A420AD94FF0500336
:1056100083F31188BFF36F8FBFF34F8F3B6000BFE1
:10562000FEE700BF1437BD4680BC7047F0E300E0E2
:105630005C1000200CED00E06010002080B58AB006
:1056400000AF78600023FB61FEF726FE584B1B6815
:10565000002B01D100F010F9564B1A687B681340FB
:10566000002B40F08E807B68002B1DD008227B68C9
:1056700013447B607B6803F00703002B14D07B6826
:1056800023F0070308337B607B6803F00703002BDC
:105690000AD04FF0500383F31188BFF36F8FBFF32D
:1056A0004F8F7B6100BFFEE77B68002B69D0424BC8
:1056B0001B687A689A4264D8404B3B623F4B1B6838
:1056C0007B6204E07B6A3B627B6A1B687B627B6A6D
:1056D0005B687A689A4203D97B6A1B68002BF1D118
:1056E000334B1B687A6A9A424BD03B6A1B6808228C
:1056F0001344FB617B6A1A683B6A1A607B6A5A68CA
:105700007B68D21A08235B009A421FD97A6A7B68A9
:105710001344BB61BB6903F00703002B0AD04FF0B1
:10572000500383F31188BFF36F8FBFF34F8F3B613B
:1057300000BFFEE77B6A5A687B68D21ABB695A6071
:105740007B6A7A685A60B86900F0F8F81A4B1A68F0
:105750007B6A5B68D31A184A1360174B1A68184B98
:105760001B689A4203D2144B1B68154A13607B6A6C
:105770005A68104B1B681A437B6A5A607B6A002286
:105780001A60FEF797FDFB6903F00703002B0AD0B0
:105790004FF0500383F31188BFF36F8FBFF34F8F28
:1057A000FB6000BFFEE7FB6918462837BD4680BD99
:1057B0006C1C0020781C0020701C0020641C002041
:1057C000741C002080B586B000AF78607B687B6178
:1057D0007B68002B48D008235B427A6913447B61C5
:1057E0007B693B613B695A68214B1B681340002B66
:1057F0000AD14FF0500383F31188BFF36F8FBFF3CB
:105800004F8FFB6000BFFEE73B691B68002B0AD08F
:105810004FF0500383F31188BFF36F8FBFF34F8FA7
:10582000BB6000BFFEE73B695A68114B1B68134021
:10583000002B19D03B691B68002B15D13B695A68B6
:105840000B4B1B68DB431A403B695A60FEF724FD93
:105850003B695A68074B1B681344064A1360386952
:1058600000F06CF8FEF726FD00BF1837BD4680BD7E
:10587000781C0020701C002080B485B000AF4FF46D
:105880004063BB60274BFB60FB6803F00703002B02
:105890000CD0FB680733FB60FB6823F00703FB6059
:1058A000BA68FB68D31A1F4A1344BB60FB687B606D
:1058B0001D4A7B6813601C4B00225A607B68BA68E3
:1058C0001344FB600822FB689B1AFB60FB6823F013
:1058D0000703FB60FB68154A1360144B1B6800222A
:1058E0005A60124B1B6800221A607B683B603B6861
:1058F000FA68D21A3B685A600C4B1A683B681A6007
:105900003B685B680A4A13603B685B68094A13603E
:10591000094B4FF000421A6000BF1437BD4680BCEF
:10592000704700BF64100020641C00206C1C002025
:10593000741C0020701C0020781C002080B485B0EE
:1059400000AF7860274BFB6002E0FB681B68FB60E0
:10595000FB681B687A689A42F7D8FB68BB60FB68F3
:105960005B68BA6813447A689A4208D1FB685A683F
:105970007B685B681A44FB685A60FB687B607B68E5
:10598000BB607B685B68BA681A44FB681B689A4214
:1059900018D1FB681A68144B1B689A420DD07B68BB
:1059A0005A68FB681B685B681A447B685A60FB682E
:1059B0001B681A687B681A6008E00B4B1A687B68E2
:1059C0001A6003E0FB681A687B681A60FA687B68F3
:1059D0009A4202D0FB687A681A6000BF1437BD464D
:1059E00080BC7047641C00206C1C002070B5002631
:1059F0000C4D0D4C641BA410A64209D100F0F0F828
:105A000000260A4D0A4C641BA410A64205D170BDA5
:105A100055F8043B98470136EEE755F8043B9847A4
:105A20000136F2E7085D0008085D0008085D00081F
:105A30000C5D0008704770470A44914200F1FF3343
:105A400000D1704710B511F8014B914203F8014F96
:105A5000F9D110BD03460244934200D1704703F8C8
:105A6000011BF9E738B50C460968054609B1FFF78F
:105A7000F9FF21462846BDE8384000F069B800002B
:105A80002C4B70B51B680446834251D0436A43B126
:105A9000DB68002B4AD1636A196811B1204600F017
:105AA00057F8616911B1204600F052F8616A11B1EE
:105AB000204600F04DF8A16B11B1204600F048F8E7
:105AC000E16B11B1204600F043F8216C11B1204682
:105AD00000F03EF8E16D11B1204600F039F8A16DFB
